:020000040800F2
:1000000070060020550100089B02000899020008B4
:1000100000000000000000000000000000000000E0
:10002000000000000000000000000000BD02000809
:1000300000000000000000009D0200080D03000801
:100040006701000800000000670100086701000860
:1000500067010008670100086701000867010008E0
:100060000000000067010008670100086701000840
:100070006701000867010008670100080000000030
:100080006701000800000000000000006701000890
:100090000000000067010008670100086701000810
:1000A0000000000067010008000000006701000870
:1000B00000F002F800F03EF80CA030C80838241810
:1000C0002D18671EA246AB4654465D46AC4201D190
:1000D00000F030F87E460F3EB6460FCC0126334284
:1000E00000D0FB1A3343A246AB4618474007000036
:1000F00060070000103A02D378C878C1FAD85207D6
:1001000001D330C830C101D504680C6070470000CD
:100110000023002400250026103A01D378C1FBD823
:10012000520700D330C100D50B6070471FB51FBD0B
:1001300010B510BD00F02DF81146FFF7F7FF00F0E5
:100140007BF900F045F803B4FFF7F2FF03BC00F0C1
:100150004BF800000748804707480047FEE7FEE7E6
:10016000FEE7FEE7FEE7FEE704480549054A064BC1
:100170007047000045030008B1000008700000202F
:100180007006002070020020700200207047704747
:100190007047754600F024F8AE46050069465346A0
:1001A000C008C000854618B020B5FFF7DDFF60BC71
:1001B000B64600260027C0C5C0C5C0C5C0C5C0C55D
:1001C000C0C5C0C5C0C5403D490849008D467047FF
:1001D00010B50446C046C0462046FFF7B4FF10BD28
:1001E000004870470800002001491820ABBEFEE718
:1001F000260002007047F0B582B00A6800231C4652
:10020000019215E002682A4002609E400268324373
:100210000260C2682A40C2600D46C9799940C2682E
:100220000A43C260019A29469B1C641C202B1ED0E5
:100230000127A7403A42F7D003259D40ED430E79B0
:10024000721E012ADED882682A4082604A799A406A
:1002500000958568154385604268BA4342608A7993
:10026000A24092B2456815434560009DCAE7097AED
:10027000002904D0016B9143016302B0F0BD016B12
:100280001143016302B0F0BD816270478161704724
:1002900042694A4042617047FEE77047704700007C
:1002A000054A002903D011680143116070471168A5
:1002B000814311607047C04614100240704700002F
:1002C000001F4142414188000E490A6804239A43B5
:1002D000101808607047C046002812D017494968B6
:1002E000484308494860002088600A6801200243AA
:1002F0000A60054A0B681340012BFBD00A68824351
:100300000A60704710E000E0010001007047000043
:10031000B0B50420C043FFF7D3FF7D20810106481C
:100320000468204600F086F9044D686004492046C0
:1003300000F080F92860B0BD0000002068000020B7
:1003400000127A00F0B585B02F4C271F38680122C3
:100350001043386020682D4901402160E06A132174
:100360008843E0620025656029480068010C01426D
:1003700005D139684005800C39680143396004951E
:1003800003950295019538680092104338600F205C
:10039000C00220490A6882430A600726F0020A6800
:1003A00002430A603868800707D40498401C049010
:1003B000000CF7D000F032F8F4E717480168039119
:1003C0000399B14303910399009A11430160216895
:1003D0000291F021029A8A430292029921602168D7
:1003E00001913102019A8A430192019921602168A9
:1003F0000322914321602168216021680907890F48
:10040000FBD1456705B0F0BD041002401CB8FFF8F1
:1004100020F8FF1FE810024000200240BFF34F8F7A
:10042000034804490160BFF34F8F00BFFDE7C0469A
:100430000CED00E00400FA0588B0FFF769FF0D201D
:1004400040040121FFF72CFF05AC0020A071FF2024
:100450000230A08002200290059074482146FFF7E8
:10046000CAFE8025059572482146FFF7C4FE042781
:1004700005970920C60630462146FFF7BCFE6B48AB
:100480000299FFF701FF6A4804952946FFF7FCFE31
:100490000396304601973946FFF7F6FE7D2080002F
:1004A0000090624D2846029E3146FFF7EFFE009C09
:1004B0002046FFF711FF28463146FFF7E5FE5C4D69
:1004C0002846049E3146FFF7E1FE2046FFF704FF71
:1004D00028463146FFF7D8FE039D2846019F39463E
:1004E000FFF7D4FE2046FFF7F7FE28463946FFF710
:1004F000CBFE2046FFF7F0FE4C48029D2946FFF751
:10050000C5FE4B48049E3146FFF7C0FE03983946AE
:10051000FFF7BCFE2046FFF7DFFE44482946FFF701
:10052000B3FE43483146FFF7AFFE039E30463946DF
:10053000FFF7AAFE2046FFF7CFFE3C4F384629467C
:10054000FFF7A6FE2046FFF7C7FE38462946FFF70D
:100550009FFE37480746049D2946FFF799FE20462F
:10056000FFF7BAFE38462946FFF792FE3546304679
:10057000019E3146FFF78CFE2046FFF7ADFE284670
:100580003146FFF785FE2046FFF7A6FE2748029D6D
:100590002946FFF77DFE2648049F3946FFF778FE7F
:1005A00003983146FFF774FE2046FFF795FE1F487B
:1005B0002946FFF76DFE1E483946FFF769FE039F87
:1005C00038463146FFF764FE2046FFF785FE1748A0
:1005D00085612046FFF780FE144885621448049D1B
:1005E00085612046FFF778FE11488562BE61254689
:1005F0002046FFF771FEBE6234462846FFF76CFEC8
:10060000029E0A488661049D09488561BC61009C80
:100610002046FFF761FE054886620548856201981D
:10062000B8622046FFF758FE3BE7C046000C004882
:100630000008004843088B421AD3002203098B426A
:1006400079D3030A8B425ED3030B8B4242D3030C54
:100650008B4227D30902FF2212BA030C8B4202D32A
:100660001212090203D0030B8B4233D31AE0D3E0FA
:10067000411A8041401C704703460B4371D4430824
:100680008B42F5D3002203098B4254D3030A8B42D9
:1006900039D3030B8B421DD3030C8B4202D39446F8
:1006A0006EE0090AC30B8B4201D3CB03C01A52413F
:1006B000830B8B4201D38B03C01A5241430B8B42F5
:1006C00001D34B03C01A5241030B8B4201D30B03DE
:1006D000C01A5241C30A8B4201D3CB02C01A524105
:1006E000830A8B4201D38B02C01A5241430A8B42C8
:1006F00001D34B02C01A5241030A8B4201D30B02B1
:10070000C01A5241CDD2C3098B4201D3CB01C01ACA
:10071000524183098B4201D38B01C01A52414309D4
:100720008B4201D34B01C01A524103098B4201D3C2
:100730000B01C01A5241C3088B4201D3CB00C01A2F
:10074000524183088B4201D38B00C01A52414308A7
:100750008B4201D34B00C01A5241411A5241100042
:100760007047CA0F00D04942031000D340425340A3
:1007700000229C4603098B422DD3030A8B4212D3DD
:100780008901FC2212BA030A8B420CD3890192110F
:100790008B4208D3890192118B4204D3890137D04F
:1007A000921100E08909C3098B4201D3CB01C01A21
:1007B000524183098B4201D38B01C01A5241430934
:1007C0008B4201D34B01C01A524103098B4201D322
:1007D0000B01C01A5241C3088B4201D3CB00C01A8F
:1007E000524183088B4201D38B00C01A5241D9D2A7
:1007F00043088B4201D34B00C01A5241411A00D228
:1008000001465241104663465B1000D34042704798
:1008100063465B1000D3404201B50021004201D085
:10082000C9430846C046C04602BD00005008000843
:100830000000002008000000F4000008580800082C
:1008400008000020680600001001000800000000F9
:080850000048E801000000006F
:04000005080000B13E
:00000001FF
